{"abi":[{"type":"constructor","inputs":[],"stateMutability":"nonpayable"},{"type":"fallback","stateMutability":"payable"},{"type":"receive","stateMutability":"payable"},{"type":"function","name":"BuyAsset","inputs":[{"name":"_AssetId","type":"uint256","internalType":"uint256"}],"outputs":[],"stateMutability":"payable"},{"type":"function","name":"ListForSale","inputs":[{"name":"_Id","type":"uint256","internalType":"uint256"},{"name":"_Price_in_wei","type":"uint256","internalType":"uint256"}],"outputs":[],"stateMutability":"nonpayable"},{"type":"function","name":"MintAsset","inputs":[{"name":"_AssetType","type":"string","internalType":"string"},{"name":"_Price_in_wei","type":"uint256","internalType":"uint256"},{"name":"_Expiry","type":"uint256","internalType":"uint256"}],"outputs":[],"stateMutability":"nonpayable"},{"type":"function","name":"RemoveAssetFromSale","inputs":[{"name":"Id","type":"uint256","internalType":"uint256"}],"outputs":[],"stateMutability":"nonpayable"},{"type":"function","name":"getAssetDetails","inputs":[{"name":"_AssetId","type":"uint256","internalType":"uint256"}],"outputs":[{"name":"Id","type":"uint256","internalType":"uint256"},{"name":"Owner","type":"address","internalType":"address"},{"name":"AssetType","type":"string","internalType":"string"},{"name":"Price","type":"uint256","internalType":"uint256"},{"name":"ExpiryDate","type":"uint256","internalType":"uint256"},{"name":"IsForSale","type":"bool","internalType":"bool"}],"stateMutability":"view"},{"type":"function","name":"getAssetsListedForSale","inputs":[],"outputs":[{"name":"","type":"uint256[]","internalType":"uint256[]"}],"stateMutability":"view"},{"type":"function","name":"getLatestAssetID","inputs":[],"outputs":[{"name":"","type":"uint256","internalType":"uint256"}],"stateMutability":"view"},{"type":"function","name":"getTransactionCount","inputs":[{"name":"user","type":"address","internalType":"address"}],"outputs":[{"name":"","type":"uint256","internalType":"uint256"}],"stateMutability":"view"},{"type":"function","name":"getUserAssets","inputs":[],"outputs":[{"name":"","type":"uint256[]","internalType":"uint256[]"}],"stateMutability":"view"},{"type":"event","name":"AssetBought","inputs":[{"name":"Seller","type":"address","indexed":true,"internalType":"address"},{"name":"Buyer","type":"address","indexed":true,"internalType":"address"},{"name":"Price_in_wei","type":"uint256","indexed":false,"internalType":"uint256"},{"name":"AssetId","type":"uint256","indexed":false,"internalType":"uint256"}],"anonymous":false},{"type":"event","name":"AssetListedForSale","inputs":[{"name":"Owner","type":"address","indexed":false,"internalType":"address"},{"name":"Id","type":"uint256","indexed":false,"internalType":"uint256"}],"anonymous":false},{"type":"event","name":"AssetMinted","inputs":[{"name":"Id","type":"uint256","indexed":true,"internalType":"uint256"},{"name":"Owner","type":"address","indexed":true,"internalType":"address"},{"name":"Price_in_wei","type":"uint256","indexed":false,"internalType":"uint256"},{"name":"Expiry","type":"uint256","indexed":false,"internalType":"uint256"},{"name":"AssetType","type":"string","indexed":false,"internalType":"string"}],"anonymous":false},{"type":"event","name":"Debug","inputs":[{"name":"message","type":"string","indexed":false,"internalType":"string"},{"name":"value","type":"uint256","indexed":false,"internalType":"uint256"}],"anonymous":false},{"type":"event","name":"RemovedAssetFromSale","inputs":[{"name":"Owner","type":"address","indexed":false,"internalType":"address"},{"name":"Id","type":"uint256","indexed":false,"internalType":"uint256"}],"anonymous":false},{"type":"error","name":"AssetIsNotForSale","inputs":[]},{"type":"error","name":"CallerIsNotTheOwner","inputs":[]},{"type":"error","name":"CannotSendMoneyDirectly","inputs":[]},{"type":"error","name":"IncorrectETHERisSent","inputs":[]},{"type":"error","name":"InvalidPrice","inputs":[]},{"type":"error","name":"OutOfExpiry","inputs":[{"name":"_ExpiryDate","type":"uint256","internalType":"uint256"}]},{"type":"error","name":"ReentrancyGuardReentrantCall","inputs":[]},{"type":"error","name":"Unauthorized","inputs":[{"name":"caller","type":"address","internalType":"address"}]},{"type":"error","name":"theAssetNotFound","inputs":[]}],"bytecode":{"object":"0x60a0604052348015600e575f5ffd5b5060015f819055503373ffffffffffffffffffffffffffffffffffffffff1660808173ffffffffffffffffffffffffffffffffffffffff1681525050608051611aae61005f5f395f5050611aae5ff3fe608060405260043610610088575f3560e01c806328b80a931161005857806328b80a931461019d5780632b2f9210146101c55780639225f03a146101ef578063a1f24b3d14610217578063fb0294aa14610258576100bf565b8062530933146100f157806301fb3fa61461010d5780631b26708c1461013757806323ca0cd214610161576100bf565b366100bf576040517f4bf7908900000000000000000000000000000000000000000000000000000000815260040160405180910390fd5b6040517f4bf7908900000000000000000000000000000000000000000000000000000000815260040160405180910390fd5b61010b6004803603810190610106919061104b565b610280565b005b348015610118575f5ffd5b5061012161061d565b60405161012e9190611085565b60405180910390f35b348015610142575f5ffd5b5061014b610626565b6040516101589190611155565b60405180910390f35b34801561016c575f5ffd5b50610187600480360381019061018291906111cf565b6106b7565b6040516101949190611085565b60405180910390f35b3480156101a8575f5ffd5b506101c360048036038101906101be91906111fa565b6106fd565b005b3480156101d0575f5ffd5b506101d96108b0565b6040516101e69190611155565b60405180910390f35b3480156101fa575f5ffd5b5061021560048036038101906102109190611374565b610906565b005b348015610222575f5ffd5b5061023d6004803603810190610238919061104b565b610b9d565b60405161024f96959493929190611469565b60405180910390f35b348015610263575f5ffd5b5061027e6004803603810190610279919061104b565b610cdb565b005b610288610e80565b60055f3373ffffffffffffffffffffffffffffffffffffffff1673ffffffffffffffffffffffffffffffffffffffff1681526020019081526020015f205f8154809291906102d5906114fc565b91905055505f60035f8381526020019081526020015f209050806005015f9054906101000a900460ff16610335576040517f1bc61e7100000000000000000000000000000000000000000000000000000000815260040160405180910390fd5b62015180426103449190611543565b816004015410156103905780600401546040517f28d9850e0000000000000000000000000000000000000000000000000000000081526004016103879190611085565b60405180910390fd5b80600301543414610404577f3c5ad147104e56be34a9176a6692f7df8d2f4b29a5af06bc6b98970d329d6577346040516103ca91906115c0565b60405180910390a16040517f2aad6c2700000000000000000000000000000000000000000000000000000000815260040160405180910390fd5b5f816001015f9054906101000a900473ffffffffffffffffffffffffffffffffffffffff16905033826001015f6101000a81548173ffffffffffffffffffffffffffffffffffffffff021916908373ffffffffffffffffffffffffffffffffffffffff1602179055505f826005015f6101000a81548160ff02191690831515021790555061049581835f0154610ec4565b60025f3373ffffffffffffffffffffffffffffffffffffffff1673ffffffffffffffffffffffffffffffffffffffff1681526020019081526020015f20825f0154908060018154018082558091505060019003905f5260205f20015f90919091909150555f8173ffffffffffffffffffffffffffffffffffffffff163460405161051e90611619565b5f6040518083038185875af1925050503d805f8114610558576040519150601f19603f3d011682016040523d82523d5f602084013e61055d565b606091505b50509050806105a1576040517f08c379a000000000000000000000000000000000000000000000000000000000815260040161059890611677565b60405180910390fd5b3373ffffffffffffffffffffffffffffffffffffffff168273ffffffffffffffffffffffffffffffffffffffff167f89da2bcca0119c5224b0355c0902f9beeff3235621b98111cf8a1ef71eb629a38560030154865f0154604051610607929190611695565b60405180910390a350505061061a610ffe565b50565b5f600154905090565b606060025f3373ffffffffffffffffffffffffffffffffffffffff1673ffffffffffffffffffffffffffffffffffffffff1681526020019081526020015f208054806020026020016040519081016040528092919081815260200182805480156106ad57602002820191905f5260205f20905b815481526020019060010190808311610699575b5050505050905090565b5f60055f8373ffffffffffffffffffffffffffffffffffffffff1673ffffffffffffffffffffffffffffffffffffffff1681526020019081526020015f20549050919050565b60055f3373ffffffffffffffffffffffffffffffffffffffff1673ffffffffffffffffffffffffffffffffffffffff1681526020019081526020015f205f81548092919061074a906114fc565b919050555081600154101561078b576040517fd909ed4f00000000000000000000000000000000000000000000000000000000815260040160405180910390fd5b5f60035f8481526020019081526020015f209050806001015f9054906101000a900473ffffffffffffffffffffffffffffffffffffffff1673ffffffffffffffffffffffffffffffffffffffff163373ffffffffffffffffffffffffffffffffffffffff1614610827576040517f3e8be92f00000000000000000000000000000000000000000000000000000000815260040160405180910390fd5b8181600301819055506001816005015f6101000a81548160ff0219169083151502179055507f6269181c966bbe7616d67fcef0a214fdfdb2305608d97094af18376a8ba6cf10338460405161087d9291906116bc565b60405180910390a1600483908060018154018082558091505060019003905f5260205f20015f9091909190915055505050565b606060048054806020026020016040519081016040528092919081815260200182805480156108fc57602002820191905f5260205f20905b8154815260200190600101908083116108e8575b5050505050905090565b60055f3373ffffffffffffffffffffffffffffffffffffffff1673ffffffffffffffffffffffffffffffffffffffff1681526020019081526020015f205f815480929190610953906114fc565b91905055504281101561099d57806040517f28d9850e0000000000000000000000000000000000000000000000000000000081526004016109949190611085565b60405180910390fd5b5f82116109d5576040517ebfc92100000000000000000000000000000000000000000000000000000000815260040160405180910390fd5b60015f8154809291906109e7906114fc565b91905055506040518060c0016040528060015481526020013373ffffffffffffffffffffffffffffffffffffffff1681526020018481526020018381526020018281526020015f151581525060035f60015481526020019081526020015f205f820151815f01556020820151816001015f6101000a81548173ffffffffffffffffffffffffffffffffffffffff021916908373ffffffffffffffffffffffffffffffffffffffff1602179055506040820151816002019081610aa991906118e0565b50606082015181600301556080820151816004015560a0820151816005015f6101000a81548160ff02191690831515021790555090505060025f3373ffffffffffffffffffffffffffffffffffffffff1673ffffffffffffffffffffffffffffffffffffffff1681526020019081526020015f20600154908060018154018082558091505060019003905f5260205f20015f90919091909150553373ffffffffffffffffffffffffffffffffffffffff166001547fd3d18587a3be0be20956da380a4a1ffb0af55a20a33b3f208b39d1915a659932848487604051610b90939291906119af565b60405180910390a3505050565b5f5f60605f5f5f5f60035f8981526020019081526020015f2090505f815f015403610bf4576040517fd909ed4f00000000000000000000000000000000000000000000000000000000815260040160405180910390fd5b805f0154816001015f9054906101000a900473ffffffffffffffffffffffffffffffffffffffff168260020183600301548460040154856005015f9054906101000a900460ff16838054610c4790611710565b80601f0160208091040260200160405190810160405280929190818152602001828054610c7390611710565b8015610cbe5780601f10610c9557610100808354040283529160200191610cbe565b820191905f5260205f20905b815481529060010190602001808311610ca157829003601f168201915b505050505093509650965096509650965096505091939550919395565b60055f3373ffffffffffffffffffffffffffffffffffffffff1673ffffffffffffffffffffffffffffffffffffffff1681526020019081526020015f205f815480929190610d28906114fc565b9190505550806001541015610d69576040517fd909ed4f00000000000000000000000000000000000000000000000000000000815260040160405180910390fd5b5f60035f8381526020019081526020015f2090503373ffffffffffffffffffffffffffffffffffffffff16816001015f9054906101000a900473ffffffffffffffffffffffffffffffffffffffff1673ffffffffffffffffffffffffffffffffffffffff1614610e05576040517f3e8be92f00000000000000000000000000000000000000000000000000000000815260040160405180910390fd5b5f816005015f6101000a81548160ff0219169083151502179055507fda7fc93a42948a2bedce0e657d9f47823764d5f2f6a5c4bd3995881a118fabb3816001015f9054906101000a900473ffffffffffffffffffffffffffffffffffffffff1683604051610e749291906116bc565b60405180910390a15050565b60025f5403610ebb576040517f3ee5aeb500000000000000000000000000000000000000000000000000000000815260040160405180910390fd5b60025f81905550565b5f60025f8473ffffffffffffffffffffffffffffffffffffffff1673ffffffffffffffffffffffffffffffffffffffff1681526020019081526020015f2090505f5f90505f5f90505b8280549050811015610fc05783838281548110610f2d57610f2c6119eb565b5b905f5260205f20015403610fb3578260018480549050610f4d9190611a18565b81548110610f5e57610f5d6119eb565b5b905f5260205f200154838281548110610f7a57610f796119eb565b5b905f5260205f20018190555082805480610f9757610f96611a4b565b5b600190038181905f5260205f20015f9055905560019150610fc0565b8080600101915050610f0d565b5080610ff8576040517fd909ed4f00000000000000000000000000000000000000000000000000000000815260040160405180910390fd5b50505050565b60015f81905550565b5f604051905090565b5f5ffd5b5f5ffd5b5f819050919050565b61102a81611018565b8114611034575f5ffd5b50565b5f8135905061104581611021565b92915050565b5f602082840312156110605761105f611010565b5b5f61106d84828501611037565b91505092915050565b61107f81611018565b82525050565b5f6020820190506110985f830184611076565b92915050565b5f81519050919050565b5f82825260208201905092915050565b5f819050602082019050919050565b6110d081611018565b82525050565b5f6110e183836110c7565b60208301905092915050565b5f602082019050919050565b5f6111038261109e565b61110d81856110a8565b9350611118836110b8565b805f5b8381101561114857815161112f88826110d6565b975061113a836110ed565b92505060018101905061111b565b5085935050505092915050565b5f6020820190508181035f83015261116d81846110f9565b905092915050565b5f73ffffffffffffffffffffffffffffffffffffffff82169050919050565b5f61119e82611175565b9050919050565b6111ae81611194565b81146111b8575f5ffd5b50565b5f813590506111c9816111a5565b92915050565b5f602082840312156111e4576111e3611010565b5b5f6111f1848285016111bb565b91505092915050565b5f5f604083850312156112105761120f611010565b5b5f61121d85828601611037565b925050602061122e85828601611037565b9150509250929050565b5f5ffd5b5f5ffd5b5f601f19601f8301169050919050565b7f4e487b71000000000000000000000000000000000000000000000000000000005f52604160045260245ffd5b61128682611240565b810181811067ffffffffffffffff821117156112a5576112a4611250565b5b80604052505050565b5f6112b7611007565b90506112c3828261127d565b919050565b5f67ffffffffffffffff8211156112e2576112e1611250565b5b6112eb82611240565b9050602081019050919050565b828183375f83830152505050565b5f611318611313846112c8565b6112ae565b9050828152602081018484840111156113345761133361123c565b5b61133f8482856112f8565b509392505050565b5f82601f83011261135b5761135a611238565b5b813561136b848260208601611306565b91505092915050565b5f5f5f6060848603121561138b5761138a611010565b5b5f84013567ffffffffffffffff8111156113a8576113a7611014565b5b6113b486828701611347565b93505060206113c586828701611037565b92505060406113d686828701611037565b9150509250925092565b6113e981611194565b82525050565b5f81519050919050565b5f82825260208201905092915050565b8281835e5f83830152505050565b5f611421826113ef565b61142b81856113f9565b935061143b818560208601611409565b61144481611240565b840191505092915050565b5f8115159050919050565b6114638161144f565b82525050565b5f60c08201905061147c5f830189611076565b61148960208301886113e0565b818103604083015261149b8187611417565b90506114aa6060830186611076565b6114b76080830185611076565b6114c460a083018461145a565b979650505050505050565b7f4e487b71000000000000000000000000000000000000000000000000000000005f52601160045260245ffd5b5f61150682611018565b91507fffffffffffffffffffffffffffffffffffffffffffffffffffffffffffffffff8203611538576115376114cf565b5b600182019050919050565b5f61154d82611018565b915061155883611018565b92508282019050808211156115705761156f6114cf565b5b92915050565b7f53656e742076616c7565202877656929000000000000000000000000000000005f82015250565b5f6115aa6010836113f9565b91506115b582611576565b602082019050919050565b5f6040820190508181035f8301526115d78161159e565b90506115e66020830184611076565b92915050565b5f81905092915050565b50565b5f6116045f836115ec565b915061160f826115f6565b5f82019050919050565b5f611623826115f9565b9150819050919050565b7f5472616e7366657220746f206173736574206f776e6572206661696c65642e005f82015250565b5f611661601f836113f9565b915061166c8261162d565b602082019050919050565b5f6020820190508181035f83015261168e81611655565b9050919050565b5f6040820190506116a85f830185611076565b6116b56020830184611076565b9392505050565b5f6040820190506116cf5f8301856113e0565b6116dc6020830184611076565b9392505050565b7f4e487b71000000000000000000000000000000000000000000000000000000005f52602260045260245ffd5b5f600282049050600182168061172757607f821691505b60208210810361173a576117396116e3565b5b50919050565b5f819050815f5260205f209050919050565b5f6020601f8301049050919050565b5f82821b905092915050565b5f6008830261179c7fffffffffffffffffffffffffffffffffffffffffffffffffffffffffffffffff82611761565b6117a68683611761565b95508019841693508086168417925050509392505050565b5f819050919050565b5f6117e16117dc6117d784611018565b6117be565b611018565b9050919050565b5f819050919050565b6117fa836117c7565b61180e611806826117e8565b84845461176d565b825550505050565b5f5f905090565b611825611816565b6118308184846117f1565b505050565b5b81811015611853576118485f8261181d565b600181019050611836565b5050565b601f8211156118985761186981611740565b61187284611752565b81016020851015611881578190505b61189561188d85611752565b830182611835565b50505b505050565b5f82821c905092915050565b5f6118b85f198460080261189d565b1980831691505092915050565b5f6118d083836118a9565b9150826002028217905092915050565b6118e9826113ef565b67ffffffffffffffff81111561190257611901611250565b5b61190c8254611710565b611917828285611857565b5f60209050601f831160018114611948575f8415611936578287015190505b61194085826118c5565b8655506119a7565b601f19841661195686611740565b5f5b8281101561197d57848901518255600182019150602085019450602081019050611958565b8683101561199a5784890151611996601f8916826118a9565b8355505b6001600288020188555050505b505050505050565b5f6060820190506119c25f830186611076565b6119cf6020830185611076565b81810360408301526119e18184611417565b9050949350505050565b7f4e487b71000000000000000000000000000000000000000000000000000000005f52603260045260245ffd5b5f611a2282611018565b9150611a2d83611018565b9250828203905081811115611a4557611a446114cf565b5b92915050565b7f4e487b71000000000000000000000000000000000000000000000000000000005f52603160045260245ffdfea264697066735822122027a5ab9241be2f3c7d9086f948982ba377ca9227fb3da6db606a68564273569864736f6c634300081c0033","linkReferences":{}},"methodIdentifiers":{"BuyAsset(uint256)":"00530933","ListForSale(uint256,uint256)":"28b80a93","MintAsset(string,uint256,uint256)":"9225f03a","RemoveAssetFromSale(uint256)":"fb0294aa","getAssetDetails(uint256)":"a1f24b3d","getAssetsListedForSale()":"2b2f9210","getLatestAssetID()":"01fb3fa6","getTransactionCount(address)":"23ca0cd2","getUserAssets()":"1b26708c"},"id":16}